:020000040800F2
:10000000100A002065010008352500086922000853
:1000100000000000000000000000000000000000E0
:100020000000000000000000000000009D25000806
:100030000000000000000000372500089F25000890
:10004000770100087701000889250008770100087A
:1000500077010008770100087701000877010008A0
:100060000000000077010008770100087701000810
:100070007701000877010008770100087701000880
:1000800077010008770100087701000800000000F0
:100090007701000877010008770100087701000860
:1000A0007701000877010008770100087701000850
:1000B000712A00086D220008000000000000000006
:1000C00000F002F800F03EF80CA030C80838241800
:1000D0002D18A246671EAB4654465D46AC4201D180
:1000E00000F030F87E460F3E0FCCB6460126334274
:1000F00000D0FB1AA246AB46334318471431000028
:1001000034310000103A02D378C878C1FAD85207C7
:1001100001D330C830C101D504680C6070470000BD
:100120000023002400250026103A01D378C1FBD813
:10013000520700D330C100D50B6070471FB51FBDFB
:1001400010B510BD00F08CF91146FFF7F7FF02F073
:10015000DFFC00F0A4F903B4FFF7F2FF03BC00F0EA
:10016000ABF900000748804707480047FEE7FEE775
:10017000FEE7FEE7FEE7FEE704480549054A064BB1
:100180007047000045260008C10000081004002048
:10019000100A00201006002010060020FEB50546BB
:1001A00010460C46184373D0AE468C460020AD1A5C
:1001B00001469C4167D36646002701243D46B61A96
:1001C0009D4102D313463A462124654676462F04C4
:1001D000360C3E432D0CB61A9D4104D3150C1B045E
:1001E0002B4312041034654676462F06360A3E43EA
:1001F0002D0AB61A9D4104D3150E1B022B43120281
:100200000834654676462F0736093E432D09B61A4F
:100210009D4104D3150F1B012B431201241D65467C
:100220007646AF07B6083E43AD08B61A9D4104D3E3
:10023000950F9B002B439200A41C65467646EF0762
:1002400076083E436D08B61A9D411AD392185B4159
:10025000641C16E00018764665464941B71A9D4170
:100260000191009009D36046B11A98418E468446A8
:10027000009801990025401C6941DD0752082A4376
:100280005B08641EE6D57246634603B0F0BDFFE727
:1002900000200146C046C0462A462346F5E701E055
:1002A00004C0091F0429FBD28B0701D50280801CE2
:1002B000C90700D00270704700290BD0C30702D0D5
:1002C0000270401C491E022904D3830702D5028014
:1002D000801C891EE3E70022EEE70022DFE70378B7
:1002E000C2781946437812061B0219438378C078F6
:1002F0001B04194311430902090A00060843704709
:10030000002203098B422CD3030A8B4211D3002312
:100310009C464EE003460B433CD4002243088B42EC
:1003200031D303098B421CD3030A8B4201D3944679
:100330003FE0C3098B4201D3CB01C01A524183096C
:100340008B4201D38B01C01A524143098B4201D326
:100350004B01C01A524103098B4201D30B01C01A51
:100360005241C3088B4201D3CB00C01A52418308CB
:100370008B4201D38B00C01A524143088B4201D3F8
:100380004B00C01A5241411A00D201465241104658
:1003900070475DE0CA0F00D04942031000D34042CD
:1003A000534000229C4603098B422DD3030A8B4203
:1003B00012D3FC22890112BA030A8B420CD38901A1
:1003C00092118B4208D3890192118B4204D3890187
:1003D0003AD0921100E08909C3098B4201D3CB01C5
:1003E000C01A524183098B4201D38B01C01A52417A
:1003F00043098B4201D34B01C01A524103098B427E
:1004000001D30B01C01A5241C3088B4201D3CB0068
:10041000C01A524183088B4201D38B00C01A52414B
:10042000D9D243088B4201D34B00C01A5241411A22
:1004300000D20146634652415B10104601D3404250
:10044000002B00D54942704763465B1000D3404201
:1004500001B50020C046C04602BD704770477047D6
:10046000754600F025F8AE46050069465346C008BB
:10047000C000854618B020B5FFF77EFE60BC00279F
:100480004908B6460026C0C5C0C5C0C5C0C5C0C560
:10049000C0C5C0C5C0C5403D49008D46704710B5B8
:1004A0000446C046C0462046FFF755FE10BD00007A
:1004B00000487047AC03002001491820ABBEFEE79E
:1004C000260002007047000038B50446064805497A
:1004D0000068FFF715FF604300E0401E0090002811
:1004E000FBD138BD40420F0020000020F7B50024AA
:1004F00016460546570809E00198A1000818FFF7BD
:10050000EEFE1021C84129680860641CA742F3D898
:10051000F00704D00199A2002868895A0180286850
:100520000068FEBDFEB505460024900816460F463D
:1005300001900EE0A000C0190090FFF7D0FE00BAB5
:10054000010A00980902C0780143286801600198F7
:10055000641CA042EED8B00721D0B007800F01285C
:1005600003D1A1002A68795C1170022808D1A0008B
:10057000C1194878097800020843296840BA088000
:10058000F04380070BD1A000C11948780A78000217
:1005900010432A6840BA1080887829680870286853
:1005A0000068FEBD72B6FEE710B5084900224A6138
:1005B00007494B684C1523434B604B680824234381
:1005C0004B60C009C001026010BD00009403002010
:1005D0000020024010B5214A00219069C30520483F
:1005E00004D54169022319434161911593699B0523
:1005F00005D5436901242343436163021943936989
:100600005B0505D54369082423434361E30119438E
:1006100093691B0505D543690424234343616302A1
:10062000194393699B0405D543691024234343610F
:100630006302194393699B0304D5446920231C4337
:10064000446119439369DB0305D54369402423437F
:100650004361A0020143916110BD000000200240EF
:100660009403002070B5054600F0DAFB0646184CEE
:100670000AE0681C08D0002D04D000F0D1FB801BDC
:10068000A84201D9032070BDA069C007F1D1A069BB
:10069000800701D50220A061A069C00511D4A0691E
:1006A00080050ED4A06940050BD4A069000508D4CC
:1006B000A069800405D4A069800302D4A069C003A6
:1006C00003D5FFF787FF012070BD002070BD00003B
:1006D00000200240F8B506460D464036317C01291F
:1006E0000DD00121317401688A68520709D5416D26
:1006F000202211434165002030740120F8BD022002
:10070000F8BD174B6A68D80547109A42154C8A6A9B
:100710002B6812D05B035B0B1A438A62296849037A
:1007200005D5A1680143A1600A20FFF7CDFE286826
:10073000800312D5A06838430EE05B035B0B9A433D
:100740008A622968490302D5A1688143A1602868AB
:10075000800302D5A068B843A06000203074F8BDC3
:10076000011000000027014070B5040006D0606D44
:10077000264600254036002802D006E0012070BD44
:10078000A5653574204600F0D3F8606DC00603D42B
:1007900021688868400705D5606D102108436065B1
:1007A0003574EBE7606DFF22013290430222104363
:1007B000606588688207920F5B48012A02D10A6847
:1007C000D2072BD1032362689B079A4205D05B4274
:1007D0009A4202D05B009A4209D10A6992009208BB
:1007E0000A6121680A6963681A430A610CE00A69B0
:1007F000920092080A6181680F22920491438160FD
:1008000081686268114381602168CA6818239A432D
:10081000CA602168CA68A3681A43CA608168012255
:100820005206914381608168A28E52061143816015
:1008300020688168C90004D481680122120711432D
:1008400081602068C168394A1140C1602069E1684F
:10085000022825D000200143204620300278037B67
:1008600052035B001A431143226B1143A2699203A6
:100870001143E269D20311432268D3681943D1605E
:10088000616A0A46FF3AC23A05D0A26A1143226859
:10089000D3681943D16042780121012A02D00BE0CC
:1008A0000420D8E70078002823D0606D2022104370
:1008B0006065A06D0843A065E06B012820681FD02B
:1008C0000169C90703D0016949084900016120682D
:1008D0004169C908C900416120684169A26B11439F
:1008E0004161A565606D80088000401C6065002046
:1008F00070BD2068C26801231B041A43C260DBE795
:100900000269FF239B009A43026120680269236CFD
:10091000A66C1A43636C33431A4302612068026970
:100920000A430261D3E70000002701401902FEFFDD
:1009300000680449884204D10348416B42151143C1
:10094000416370470024014000100240F0B50446A6
:1009500000201E23012601E05B1E05D3DF06FF0EEB
:100960003546BD400D42F7D0002A0ED0082A0AD0E5
:10097000102A05D0182A01D1072B06D30120F0BD7B
:10098000082BFBD201E0102BF8D2236859612368B1
:1009900099681824A14311439960F0BD70B50446CD
:1009A000002002236377236A012B0ED0022B10D084
:1009B000032B11D104E083002568CB582B60401C29
:1009C0009042F8D32068006806E02046FFF7AAFDB1
:1009D00002E02046FFF78AFD0121617770BD70B506
:1009E000044600200223637723689E6801252E4376
:1009F0009E60236A012B0ED0022B10D0032B11D145
:100A000004E083002668CB583360401C9042F8D342
:100A10002068006806E02046FFF784FD02E02046DB
:100A2000FFF764FD657770BD10B5040012D0607FDC
:100A3000002803D12077204600F034F802206077A8
:100A40002079002808D02046E268A168FFF77EFFE1
:100A5000002809D0012010BD216811484861206894
:100A600081681822914381606079002814D0206940
:100A70002168086121688868602290436269104398
:100A800088602168886880229043A269104388604A
:100A900001206077002010BD0020C043E8E700007F
:100AA000B71DC10408B500680549884207D105484B
:100AB000026B81140A430263006B0840009008BD7A
:100AC000003002400010024030B5014620314A7922
:100AD0000023022A04D00422C2630B71012030BD1E
:100AE000026814680E25AC43146002681468640838
:100AF00064001460446C1C22144001221546006CF2
:100B0000A54045604A7118460B7130BD70B5002490
:100B1000014620314A79022A03D00421C16301240D
:100B200018E0026813680E25AB431360026813686F
:100B30005B085B001360436C1C22134001221546C6
:100B40009D40036C5D604A7100220A71816B00292F
:100B500000D08847204670BDF8B51A4E0546307C57
:100B60000F46012807D0012030741748FFF77AFD9F
:100B7000010002D021E00220F8BD0020C04338600F
:100B80006C6814E02046FFF70FFD0F48FFF76AFD81
:100B900001460E48426808239A4342604268431562
:100BA0009A434260002901D03C6006E08034A86886
:100BB0006A68C0018018A042E4D80020307408465A
:100BC000F8BD00009403002050C300000020024044
:100BD00005484168022211434160416801221143E6
:100BE000416000207047000000200240F8B50C4C26
:100BF0001646207C0F46012808D0012020740948A1
:100C0000FFF730FD0025002802D006E00220F8BDE5
:100C100065613E600348FFF725FD2574F8BD0000BF
:100C20009403002050C3000011484168C9070BD04D
:100C3000EFF3108172B60F4AC2600F4AC26081F3AF
:100C400010884168C9070ED1416889070DD5EFF3B7
:100C5000108172B6094A0261094A026181F3108863
:100C60004068800701D501207047002070470000D0
:100C700000200240EFCDAB8905040302BFAE9D8C7E
:100C800016151413FCB500230124A7E027462A46B5
:100C90009F403A406FD04D68012D05D0022D03D002
:100CA000112D01D0122D16D185680326AC465D00AA
:100CB000AE46AE406546B543AC46CE687546AE40DE
:100CC00065462E43866046680D79BE43ED06ED0FFE
:100CD0009D4035434560C6685F000325BD40AE4674
:100CE000AE4335468E68BE402E43C6604E68022E27
:100CF00001D0122E14D1DE08B60036180196366ADD
:100D00005D07B446EE0E0F25B54000966646AE432D
:100D1000B4460D69009EB54066462E43019D2E6285
:100D200006687546AE430D79AD07AD0FBD4035433E
:100D300005604D68ED0050D52B4D6E6B26436E63FC
:100D40009E082A4DB6007519AC46AD689E07360F51
:100D50000F27B740BD4305273F07B84201D1002701
:100D60001AE0234FB84201D1012715E0214FB842C4
:100D700002D1022710E030E01F4FB84201D1032713
:100D80000AE01E4FB84201D1042705E01C4FB842CB
:100D900001D1052700E00627B7402F436546AF6025
:100DA000184D2E684F689643FF0300D516432E60FA
:100DB0006E684F689643BF0300D516436E60AE68F9
:100DC0004F689643FF0200D51643AE60EE684F6849
:100DD0009643BF0200D51643EE605B1C0A681546B9
:100DE000DA4000D052E7FCBD001002400000014094
:100DF0000004005000080050000C0050001000508B
:100E0000001C0050000401400069084000D001208F
:100E10007047002A01D081617047816270470000ED
:100E20000148806870470000140000200248816873
:100E300002788918816070471400002010B50848B6
:100E400000240168402211430160204600F00AF8A6
:100E5000002801D0012401E000F026F8204610BD52
:100E60000020024070B504460D4D7D202978C00059
:100E7000FFF746FA01460B480068FFF741FA00F019
:100E800033FF002809D1042C07D200222146401E3E
:100E900000F022F800206C6070BD012070BD0000E1
:100EA00014000020200000200448416B012211435F
:100EB0004163816B0204114381637047001002405B
:100EC000002805DBC106C90E0120884001490860E1
:100ED0007047000000E100E010B501F0F7FD10BD23
:100EE000024801688215114301607047007000409C
:100EF000F8B5044600780027584D800671D5574E46
:100F0000403EB06BC00004D4B06BA9050843B06389
:100F1000012753480168C90511D40168821511439E
:100F20000160FFF77DFF009005E0FFF779FF009972
:100F3000401A642837D84A480068C005F5D5326899
:100F40000321090560680A400140914208D08103ED
:100F5000890F032904D13168890301D50120F8BD27
:100F60002A69032109040A4022D0084090421FD078
:100F7000207880061CD528692A6988430121C90484
:100F80000A432A612A698A432A612861C0050FD56C
:100F9000FFF746FF009008E0FFF742FF0099411A73
:100FA0003048814201D90320F8BD28698005F3D576
:100FB00061688803800F032805D1326800058243E9
:100FC00001400A433260286903226168120411401B
:100FD00008432861002F04D0B16B01200007814332
:100FE000B1632078C00705D0E868A1688008800058
:100FF0000843E8602078800705D5E8680C2188431D
:10100000E1680843E8602078400706D5E8680321D6
:101010008902884321690843E8602078000706D5E3
:10102000E86803210903884361690843E860208870
:10103000C00506D5E868032109048843A16908436F
:10104000E8602078000606D5E86803218904884313
:10105000E1690843E8600020F8BD0000401002404C
:101060000070004088130000F8B50E46050038D027
:101070005E480068C007C00FB04214D25B4C2068C5
:101080004008400030432060FFF7CAFE074605E0F5
:10109000FFF7C6FEC11B564881427AD82068C007B8
:1010A000C00FB042F4D12878524C800705D5E068D3
:1010B000F0218843A9680843E0602878C00752D02F
:1010C0006868022806D0032807D0216801280AD0C2
:1010D000890504E02168890301E02168890100296C
:1010E00003DB0120F8BD4907F9E7E16889088900B9
:1010F0000143E160FFF794FE0746686802280AD0C2
:10110000032814D001281ED029E0FFF789FEC11B57
:10111000374881423DD8E0680007800F0228F4D1AB
:1011200021E0FFF77DFEC11B3148814231D8E068E4
:101130000007800F0328F4D115E0FFF771FEC11BF3
:101140002B48814225D8E0680007800F0128F4D1A0
:1011500009E0FFF765FEC11B2548814219D8E06808
:101160000007800FF5D121480168C907C90FB142B6
:1011700017D901684908490031430160FFF750FE63
:10118000074608E005E0FFF74BFEC11B1848814207
:1011900001D90320F8BD15480068C007C00FB04250
:1011A000F1D12878400706D5E06807210902884375
:1011B000E9680843E0602878000707D5E068072160
:1011C000C90288432969C9000843E06000F03AF881
:1011D000E168094A0906090F515CC84007490860DF
:1011E00007480068FFF73EFEF8BD000000200240FF
:1011F0008813000000100240EC310008200000209D
:1012000018000020044805490068C968044A4905D7
:10121000490F515CC8407047200000200010024078
:1012200005320008044805490068C968044A890471
:10123000490F515CC8407047200000200010024058
:101240000532000870B51A4AD3681A490C201840B4
:101250008D0004280CD0184E082810D00C2810D06F
:1012600050680004410F0120C003491C884070BD34
:101270001068C00601D5084670BD284670BD3046CE
:1012800070BD98020D4C000F205C1B029C0FD368B0
:10129000641CDB0301D5314603E01268D20600D49A
:1012A000294601F0EDFB22460023FEF777FF70BDD3
:1012B0000010024000093D00001BB700FC3100088F
:1012C000FEB505007ED0F74CE7680C20E6680740C5
:1012D0000120000406402878C00747D0082F05D019
:1012E0000C2F0AD101200004864206D12068800319
:1012F0003CD568680028E5D038E001206968000422
:10130000814203D121680143216011E005230122BC
:101310001B0492049942216802D111432160F1E734
:101320008143216021680140009120689043206042
:10133000686800280DD0FFF773FD009005E0FFF707
:101340006FFD0099401A64287ED820688003F6D586
:101350000CE0FFF765FD009005E0FFF761FD0099E7
:10136000401A6428F0D820688003F6D428788007D3
:101370005DD5E868810604D5226820210A432260F1
:1013800088430923042F0DD00C2F01D1002E09D042
:1013900000283CD02168994301432160FFF740FDBC
:1013A000064628E02168490701D500288AD06168EF
:1013B0001F22120291432A691202114361602168BF
:1013C000994300E091E101432160FFF73BFFE168B1
:1013D00009060A0FB449895CC840B4490860B4489A
:1013E0000068FFF73FFD002874D120E0FFF718FDEB
:1013F000801B0228A8D820684007F7D560681F2105
:101400000902884329690902084360600FE02068E7
:10141000400840002060FFF703FD064604E0FFF7A8
:10142000FFFC801B02288FD820684007F7D428785B
:10143000C00661D5002F0DD0A86900284BD02068C8
:10144000FF210131084300E0C6E02060FFF7E8FC1F
:1014500006462DE02068800502D5A8690028A5D0A1
:101460006068072149038843296A0843606060680F
:10147000297F0002000A090608436060286A410BC0
:101480000120C003491C8840E16809060A0F86490B
:10149000895CC8408549086085480068FFF7E2FC20
:1014A000002817D128E0FFF7BBFC801B0228A1D839
:1014B00020688005F7D56068072149038843296AB9
:1014C000084360606068297F0002000A090608433B
:1014D000606011E0E1E02168FF200130814321607C
:1014E000FFF79EFC064604E0FFF79AFC801B0228EB
:1014F00072D820688005F7D428786E4E000724D56E
:1015000068690028306910D0012108433061FFF775
:1015100087FC009005E0FFF783FC0099401A022841
:101520005AD830698007F6D50FE040084000306196
:10153000FFF776FC009005E0FFF772FC0099401A77
:10154000022849D830698007F6D42878400765D545
:1015500000200290A06BC00006D4A06B01210907F7
:101560000843A0630120029053480168C90511D4C3
:101570000168821511430160FFF752FC009005E0FD
:10158000FFF74EFC0099401A642825D84A480068A5
:10159000C005F5D5FF20AA680130824203D1316928
:1015A0000143316111E001218902002A07D005239E
:1015B0001B029A4203D132690A433261EFE7326972
:1015C00082433261306988433061A86800280FD0B7
:1015D000FFF726FC009007E05EE0FFF721FC009992
:1015E000411A3648814257D830698005F5D50DE05B
:1015F000FFF716FC009006E0FFF712FC0099411A75
:101600002E48814248D830698005F5D402980028D8
:1016100004D0A06B012109078843A063686A0028F1
:1016200065D00C2F4CD0012636060228206805D044
:10163000B0432060FFF7F4FB05462FE0B043206085
:10164000FFF7EEFB074604E0FFF7EAFBC01B0228AA
:1016500022D820688001F7D4E96AA86AE2680843C2
:10166000296BFD231B049A4311430843E060206863
:1016700030432060FFF7D4FB054604E0FFF7D0FBC2
:10168000401B022808D820688001F7D52FE0FFF71B
:10169000C7FB401B022801D90320FEBD2068800142
:1016A000F5D424E000100240EC31000820000020B6
:1016B0001800002040100240007000408813000015
:1016C0000128EAD0E06801210904AA6A0140914298
:1016D0000BD10F218904EA6A0140914205D103210F
:1016E00089050840296B884201D00120FEBD0020F9
:1016F000FEBD7047F7B5054604462035287882B010
:10170000012814D001202870022068702168CA20A6
:10171000486221685320486220688068002640059E
:10172000FF27002812DAFFF77BFB00900AE0022077
:1017300005B0F0BDFFF774FB0099411A7D20C00091
:1017400081421CD82068C0684007F3D420688168B3
:1017500001229202914381602068C1688022114079
:10176000204A8918C160FFF75BFB00900DE0FFF78E
:1017700057FB0099411A7D20C000814205D920689D
:101780004762032068702E70D2E72068C068400767
:10179000EDD521680398486120688168C908C900AF
:1017A000816020688168049A114381600E48026854
:1017B000012109050A43026082680A4382602068A9
:1017C00081680122920311438160206881681211AF
:1017D0001143816020684762012068702E700020EC
:1017E000A6E700007FFBFFFF0004014070470000F8
:1017F00010B504460068C068400509D52046FFF7CB
:10180000F5FF2068C16880221140054A8918C1602F
:10181000012004490005486101202034607010BD9A
:101820007FFBFFFF000401407047000070B50446D5
:10183000006881688025C90400290BDAC068C005EA
:1018400008D52046FFF7F0FF2168C8682840FF3818
:101850008238C8602068816889040BD5C06880051B
:1018600008D52046FFF745FF2068C168054A294092
:101870008918C160012004494004486101202034D6
:10188000607070BD7FFDFFFF00040140F8B50400EB
:1018900050D0254620356878002803D1287020468E
:1018A00000F052F8022068702168CA20486221685E
:1018B00053204862204600F04BFEFF2604270028F4
:1018C000206802D046626F7034E081681D4A114082
:1018D0008160216888686268A369104322691A439D
:1018E000104388602168E0680861206801692289E6
:1018F0001204114301612068C16880229143C160D4
:101900002068C16C89088900C164E169606901438C
:101910002068C26C1143C1642068806880060BD4C3
:10192000204600F0C7F9002806D0206846626F7094
:10193000002028700120F8BD2068466201206870F0
:101940000020F8BDBFFF8FFF10B50068084988422E
:101950000DD108480169012292041143016100225E
:1019600011460220FFF7B8FA0220FFF7A9FA10BDCE
:101970000028004040100240FEB5064604462036CE
:1019800030780B4601283ED0012030700220707064
:10199000184620300090206800278068002A34D044
:1019A000400600D4DF7019789D7809040D435978FA
:1019B000DA780902120411430D430099D8690978B5
:1019C00009060D430543586999690543586808435A
:1019D00000902168CA204862216853204862FF2095
:1019E0005A6A01308021824245D12268936883433C
:1019F00093602068C2680A40FF3A823AC260FFF7EB
:101A00000FFA019024E00220FEBD400600D4DF70F2
:101A1000187800F091FD0504587800F08DFD000263
:101A20000543987800F088FD0543D8780004054305
:101A30000098007800F080FD00060543D869C1E7F2
:101A4000FFF7EEF90199411A7D20C00081422AD8A2
:101A50002068C068C007F3D02068C561216800987D
:101A6000486420688168FF22013211438160206848
:101A70008168120130E02068826801235B029A438A
:101A800082602068C2680A401D495118C160FFF792
:101A9000C7F901900EE0FFF7C3F90199411A7D20C3
:101AA000C000814206D92168FF204862032070707F
:101AB0003770FEBD2068C0688007ECD520680562DD
:101AC00021680098886420688168012252021143CD
:101AD00081602068816812011143816009480268B1
:101AE000012149040A43026082680A438260216836
:101AF000FF2048620120707037700020FEBD00009A
:101B00007FFDFFFF00040140F8B50546044620357F
:101B100028780B4601280FD0012028700220687019
:101B2000002A0BD0D8789E780004064358780978AC
:101B300000024903084317E00220F8BD5878C106A7
:101B400003D5EF2108400A305870D87800F0F4FC33
:101B50000604587800F0F0FC00020643987800F084
:101B6000EBFC06431878400306432168CA2048620C
:101B7000216853204862204600F0EAFC0027002834
:101B800011D111480640206846602068C168802253
:101B90009143C1602068806880060CD4204600F024
:101BA00089F8002807D02168FF2048620420687067
:101BB0002F700120F8BD2168FF2048620120687065
:101BC0002F700020F8BD00003FFFFF00F8B506466B
:101BD0000446203630780D46012822D0012030708E
:101BE00002207070206800278068002A1BD0400601
:101BF00000D4EF702978A878090408436978EA7856
:101C0000090212041143084300902168CA20486267
:101C1000216853204862204600F09AFC002837D102
:101C200016E00220F8BD400600D4EF70287800F0DE
:101C300083FC0304687800F07FFC00020343A8786B
:101C400000F07AFC0343E878000403430093DCE7E8
:101C500017490098084021680860206881680122BF
:101C60009204914381602969E868084321688A6881
:101C7000104388602068C16880229143C160206859
:101C8000806880060CD4204600F014F8002807D0A5
:101C90002168FF2048620420707037700120F8BD71
:101CA0002168FF2048620120707037700020F8BD65
:101CB0007F7F7F0070B504460068C168A022914311
:101CC000C160FFF7ADF87D260546F60006E0FFF798
:101CD000A7F8401BB04201D9032070BD2068C0683E
:101CE0008006F4D5002070BD094910B5401E884219
:101CF00001D9012010BD074C60610321081F00F0CD
:101D0000E5FE0020A06107202061002010BD00003A
:101D1000FFFFFF0000E000E07047704770470000E1
:101D2000F8B502680446D06911689668814B05468B
:101D30001D402023002D6CD0F7077F4DFF0FBC46C0
:101D40000D402F4379D02546C7078035002F06D098
:101D5000CF0504D5012717622A683A432A60820713
:101D600008D5F20706D0276802223A622A680427BB
:101D70003A432A60420708D5F20706D026680422B3
:101D800032622A68022632432A6002070AD50A46CE
:101D90001A406646324305D02668082232622E6811
:101DA00016432E60020508D54A0106D50122266891
:101DB000D20232622A681A432A602A68002A30D086
:101DC000800606D5880604D5616E002901D020461C
:101DD0008847286821688968490602D42821084272
:101DE00025D0204600F0D0FC20688168490619D52E
:101DF000826840218A438260206F002812D04F49B8
:101E00008163206FFEF782FE00280AD0206F816B6D
:101E100006E0850611D58D060FD5616E77E0204668
:101E20008847F8BD2046FFF779FFF8BD05E020465A
:101E3000FFF774FF00202860F7E7256E012D56D1CB
:101E4000C50654D5CD0652D5102616622068816885
:101E500025464906403500292ADA226F116849686B
:101E60000904090CE1D02F8B8F42DED969831168F8
:101E70000968890617D4016832019143016020681E
:101E80008168490849008160206881684022914347
:101E90008160E3670020206620680168B14301602B
:101EA000206FFEF711FE288B698B401A81B21AE071
:101EB000298B6A8B891A6A8B89B2002AB5D00029CE
:101EC000B3D00268FF252135AA43026020688268EA
:101ED000520852008260E367002020666066206836
:101EE0000268B24302602046FFF716FF9DE7C50275
:101EF00008D5750206D50120000510622046FFF7BF
:101F00000CFF92E7050605D50D0603D5A16E002945
:101F100085D18AE7400688D5480686D511682046CF
:101F20004024A143116083670021816600F09BF982
:101F30007BE700000F08000020010004752700085F
:101F400010B5040003D0A06F002802D007E00120E4
:101F500010BD002174200155204600F027F82420F0
:101F6000A06720680168490849000160204600F028
:101F700025FC0128ECD0606A002802D0204600F041
:101F800062FB206841680922D202914341602068C7
:101F900081682A22914381602068016801221143EF
:101FA0000160204600F0B4FB10BD0000F0B587B022
:101FB000044614216846FEF790F92D4D266800224C
:101FC0002C48022103230424AE4217D1856B4E0412
:101FD00035438563C56A0D43C562C06A6D460840D6
:101FE000059098021FC569462348FEF74BFE002264
:101FF00011461D20FEF770FF1D2035E01F4F012503
:10200000BE4214D1466BAF033E434663C66A2E43BD
:10201000C662C06A6E4628400590032040021FC673
:10202000052069460007FEF72DFE07B0F0BD144FEE
:10203000BE42FAD1866B01277F043E438663C66A9F
:102040002E43C662C06A6E46C007C00F05900C20C2
:102050001FC6052069460007FEF714FE0022114640
:102060001C20FEF739FF1C20FEF72AFFDDE70000E9
:1020700000480040001002400004005000380140B9
:1020800000440040FFB50446C06F85B017460E46B9
:1020900020287AD1002E0AD0002F08D0A168C001D4
:1020A000814207D12069002804D1F00702D0012025
:1020B00009B0F0BD204660300090007D012864D05A
:1020C0000098012101750020802108512221E1673B
:1020D0002066FEF7A5FE2546403502902F836F83CC
:1020E0000121A0680903FF22884204D12369002B43
:1020F0000CD1274A0AE07F23002809D001221207C9
:10210000904219D12269002A05D03F22AA8303E018
:102110002769002FFAD0AB83AA8B0192884202D1A3
:10212000206900280AD0374600260099002008754B
:102130000198C0B203901AE00022E7E70027F4E715
:1021400008980090002220212046029B00F040FCCD
:10215000002801D00320ABE72068002F0FD0416A90
:102160000398014039707F1C688B401E6883688B20
:102170000028E5D12020E067002099E705E0406ACB
:10218000019908403080B61CEEE7022090E700007D
:10219000FF010000FFB50446806F83B017460D466F
:1021A00020285ED1002D0AD0002F08D0A168C001E0
:1021B000814207D12069002804D1E80702D001201C
:1021C00007B0F0BD204660300090007D012848D067
:1021D0000098012101750020802108512120A0676D
:1021E000FEF71EFE26464036019037827782012098
:1021F000A1680003814202D12069002805D02F4642
:10220000002500990020087511E00027F9E7002259
:102210008021204600F0DCFB002815D1002F15D0CE
:102220002168387888627F1C708A401E7082708AAC
:10223000019B002806980090E9D100224021204609
:1022400000F0C6FB002808D00320B9E728882168E1
:10225000C005C00D8862AD1CE6E72020A067002005
:10226000AEE70220ACE77047FEE7000010B5024879
:10227000FFF756FD10BD0000E40100201CB5002151
:1022800019480091174A019102600322C163920725
:102290004260082282608163012202610246C160BD
:1022A00020321170FF235170C23343628162117377
:1022B00001638161042241634261C161FEF754FA06
:1022C000002801D0FEF76EF90848009001200003B5
:1022D000019069460448FEF7FDF9002801D0FEF799
:1022E00061F91CBD0024014064010020000002448B
:1022F00010B5094807490160002101714171416130
:10230000816103210162FEF78FFB002801D0FEF7F7
:1023100049F910BD00300240C0010020F0B587B07F
:1023200014216846FDF7D9FF2348C26A04210A43F5
:10233000C262C26A0A400592C26A80210A43C2622E
:10234000C26A0A400592C16A01252943C162C16A75
:1023500029400591C26A02210A43C262C06A052669
:10236000084036070590002240213046FEF751FD17
:10237000134F002211493846FEF74BFD4020002440
:10238000009002946946019503943046FEF77AFC6A
:102390001120C0016A4631C269463046FEF772FC20
:1023A00006480294801C00906946019503943846C3
:1023B000FEF768FC07B0F0BD0010024001400000CD
:1023C0000004005010B50C480A4901604B21C901B6
:1023D000416000218160C160016181610C22016264
:1023E00042614162FFF7ACFD002801D0FEF7DAF848
:1023F00010BD000000480040E401002030B591B05D
:1024000014216846FDF769FF0024282106A80594D9
:10241000FDF763FF29492A4812C07F2101608460CB
:10242000C4600461FF21446141600838FFF72EFA5F
:10243000002801D0FEF7B6F8684604704470847036
:102440000394012269461E480494FFF7BFFB00284D
:1024500001D0FEF7A7F80125684605754575857515
:10246000C4752A4605A91648FFF74EFB002801D07F
:10247000FEF798F8684604764476847607940994C3
:102480000A940B940C9408A80D940576FF20013053
:102490000F90012206A90A48FFF76EFA002801D022
:1024A000FEF780F804221E210548FFF723F90028D3
:1024B00001D0FEF777F811B030BD000000280040D1
:1024C0007003002010B50C480A4901604B21C90176
:1024D000416000218160C16001618161C1610C22A4
:1024E000016242614162FFF72BFD002801D0FEF737
:1024F00059F810BD003801406802002010B50C48A2
:102500000A4901604B218901416000218160C1605D
:1025100001618161C1610C22016242614162FFF788
:102520000FFD002801D0FEF73DF810BD004400402B
:10253000EC020020FEE770470022014602E00A3963
:10254000C9B2521C0A29FAD21007000E084370477C
:1025500070B504460068C168490613D40021C94318
:10256000C160FEF75DFC7D260546F60006E0FEF73D
:1025700057FC401BB04201D9032070BD2068C068E1
:102580004006F4D5002070BD10B50348FFF74EF9A2
:102590000148FFF72DF910BD70030020704710B5FA
:1025A000FEF744FC10BD000030B59BB034216846F6
:1025B000FDF793FE142115A8FDF78FFE20210DA82D
:1025C000FDF78BFE1D4801680324E402A143C214F9
:1025D00089180160FEF784FC1948016921430161F3
:1025E000012505202D040090281200240290019559
:1025F00009946846FEF764FE002801D072B6FEE733
:102600000F20159002201690179418940021199409
:1026100015A8FEF729FD002801D072B6FEE7262096
:102620000D9010940E9511940DA8FEF761FC0028F2
:1026300001D072B6FEE71BB030BD00000070004054
:1026400040100240704710B5818CC90707D001685F
:102650004A6801235B049A43836A1A434A60818C67
:10266000890707D501684A6801231B049A43C36A96
:102670001A434A60818C490707D501684A680123DB
:102680009B049A43036B1A434A60818C090707D560
:1026900001684A680123DB039A43436B1A434A608B
:1026A000818CC90607D50268916801231B039943F1
:1026B000836B19439160818C890607D501688A680C
:1026C00001235B039A43C36B1A438A60818C4906DA
:1026D00012D503685A6801210905046C8A43224314
:1026E0005A60026C8A4207D10268516803235B0575
:1026F0009943436C19435160818C090607D50168E1
:102700004A680123DB04806C9A4302434A6010BD8F
:10271000F8B50446002680300660FEF781FB0546CA
:1027200020680068124F000709D501212B460022BE
:1027300049052046009700F04BF900280DD120688C
:10274000006840070BD501212B4600228905204651
:10275000009700F03DF9002801D00320F8BD2020AB
:10276000A067E0672666603426750020F8BD00008B
:10277000FFFFFF0110B5806A0022014640314A8305
:102780004A82FFF7CBFA10BD01680A68FF232133A4
:102790009A430A6001688A68520852008A60016E92
:1027A000012904D101680A6810239A430A60202194
:1027B000C16700210166416670470000F8B5044614
:1027C000016880682269E669104362690025324326
:1027D0001043754B0A68754E324002430A60206808
:1027E0004168032212039143E2681143416021686A
:1027F000A069994201D0226A10438A680B263602EA
:10280000B24302438A606A4922686A488A420CD10C
:10281000C0688007800F06D001283FD002283BD037
:10282000032827D124E0012725E063498A420AD101
:10283000C0680C2108402DD004282FD008282BD0A8
:102840000C2817D114E05D498A4223D05C498A42A2
:1028500020D09A420ED1C16803208002014019D0D5
:1028600001208002091A19D0091A15D0814201D11C
:10287000082700E010274F495248403986009A4205
:1028800032D1002F0CD0022F0DD0042F10D0082FE2
:102890007FD126E00027EEE70227ECE70427EAE7EE
:1028A000FEF7B0FC06E00968C90605D4304603E02F
:1028B000FEF7C8FC002872D06268510051188142AE
:1028C00067D81103814264D3010E06025008002329
:1028D00030185941FDF762FC03210902411A3A4AB6
:1028E00055E00120C003E7E70122E369D2039342E8
:1028F0002BD13B0000F0DCF80906090C4D114D4DC1
:102900004D274D00FEF77EFC09E0FEF78BFC06E04C
:102910000968C90605D4304603E0FEF793FC002899
:102920003DD0616840004A088018FDF7E9FC80B29C
:1029300002462649103A8A422BD8491C014000071A
:10294000400F084329E01046EBE73B0000F0B0F8E9
:102950000906090C2112212121232100FEF752FC36
:102960000AE0FEF75FFC07E00968C90606D43046B6
:1029700004E00EE0FEF766FC002810D061684A080B
:102980001018FDF7BDFC80B20146104A1039914283
:1029900003D9012503E01046F0E72168C860002054
:1029A0006066A0662846F8BD00480040F369FFEF66
:1029B000003801404010024000440040004C0040FC
:1029C0000050004000093D00FFFC0F00EFFF000039
:1029D000FFB581B005460F46044660350A9E39E0D2
:1029E000701C37D0FEF71CFA0499401AB04222D866
:1029F000002E20D02068016849072BD5C069C0434C
:102A0000000527D401202168C002086220680168FF
:102A1000FF22A13291430160206881684908490082
:102A200081602020A067E067803420600020287546
:102A3000032005B0F0BD20680168FF22A132914358
:102A40000160206881684908490081602020A067F2
:102A5000E067EBE72068C1693846884305D000216C
:102A600003988142BCD00020E3E70121F8E7000091
:102A700010B50248FFF754F910BD0000EC02002029
:102A8000F8B5040C8BB2264682B25E430D0C10469C
:102A9000370C5843360480190021794116466E439D
:102AA000370C36048019794126466E438919F8BDE2
:102AB00030B47446641E2578641CAB4200D21D46B7
:102AC000635D5B00E31830BC184700008307FF22FA
:102AD000DB0E9A408907090E9940002808DB83081D
:102AE00009489B001B1818689043084318607047FA
:102AF0000007000F0838830804489B001B18D8699A
:102B000090430843D861704700E400E000ED00E026
:102B10008AB0FEF793F9FFF747FDFFF7FFFBFFF7DA
:102B20006DFCFFF7EBFCFFF74DFCFFF7A7FBFFF792
:102B3000DFFBFFF7C7FC052080210007FEF764F9E3
:102B4000012806D1FE49086880F308884868804754
:102B5000FEE70020FF21FB4C2D3105462554401C8B
:102B600080B28842FAD30026F64333460122F54963
:102B7000F548FFF787FA20780106EAD447067F0E6A
:102B800033463A1D611CF048FFF77CFA0020EF49FC
:102B90000D54401C80B21428F9D300200790012066
:102BA000EB497E1C0870022F21D2A01CFDF797FB79
:102BB00000BA000A61790002E54D08432861607897
:102BC00021780002084340BA00040690012206A9B9
:102BD000E048FDF704FFE8602869E968884262D1AF
:102BE000DA4A287841211154401C28705BE0D94909
:102BF00009688A6802438A60002536E0B54201D23E
:102C0000615D00E0002168460175681CB04204D295
:102C1000601940786946487502E0002168464175B0
:102C2000A81CB04204D2601980786946887502E019
:102C3000002168468175E81CB04202D26019C17853
:102C400000E000216846C1750598694600BA000A8F
:102C5000C97D000208430690012206A9BD48FDF780
:102C60009DFEBB49C8602D1DEDB2B542C6D3E51926
:102C7000681CFDF734FB00BA020A28791202B44935
:102C800002430A610A69C868824206D1AF4B0878DC
:102C900041221A54401C087005E064230822AEA1AA
:102CA000A948FFF777FA60780300FFF701FF0805EE
:102CB000063066BDFDFCFB054BE7A449487841287A
:102CC00001D04E233FE2A24B482218784C240A54EC
:102CD000401CC0B245220A54401CC0B20C54401CD7
:102CE000C0B250240C54401CC0B252240C54401C9E
:102CF000C0B20A54401CC0B253220A54401CC2B293
:102D00001A7010468030FF230870F533F3E08F49C6
:102D10004878412809D08E4B4E2218780A54401C1E
:102D2000C2B21A7081200870D6E1894B56221878F9
:102D30000A54401CC0B245220A54401CC0B2522260
:102D40000A54401CC0B253220A54401CC0B249224B
:102D50000A54401CC0B24F220A54401CC0B24E223A
:102D60000A54401CC0B23A220A54401CC0B231225C
:102D70000A54401CC2B21A702AE2744841784129B0
:102D800007D0734B4E2219784254491CCAB21A70AC
:102D900071E16F4B4622197841244254491CC9B253
:102DA0004C224254491CC9B24454491CC9B2532252
:102DB0004254491CC9B248254554491CC9B2425421
:102DC000491CC9B254254554491CC9B24454491C34
:102DD000C9B24554491CC9B255244454491CC9B20E
:102DE0004254491CC9B23A224254491CC9B2202259
:102DF00042545C4A491C146AC9B2240E4454491C0A
:102E0000146AC9B2240C4454491C146AC9B2240A75
:102E10004454491C126AC9B24254491CCAB21146F0
:102E20001A708031017057E148484078412867D0D6
:102E30004749464B08784E221A54401CC2B20A70C9
:102E400081201870642341493F48FFF7A3F9464D9C
:102E500064212E7C3046FDF753FA3C4C3030207014
:102E600008460A21FDF74CFA303060700A213046DE
:102E7000FDF746FA3031A1706E7C64213046FDF7D3
:102E80003FFA3030E07008460A21FDF739FA303059
:102E900020710A213046FDF733FA30316171AE7C82
:102EA000642102E049E10AE1DAE03046FDF728FA60
:102EB0003030A07108460A21FDF722FA3030E07167
:102EC0000A213046FDF71CFA30312172ED7C642175
:102ED0002846FDF715FA3030607208460A21FDF7E2
:102EE0000FFA3030A0720A212846FDF709FA303176
:102EF0006423E1720C2215491348FFF74BF928E6C9
:102F0000134E124930784D220A54401C0F4AC0B269
:102F100041211154401CC0B24E211154401CC0B27A
:102F200049211154401C0949C0B244220A54401C92
:102F3000064AC0B23A211154401CC0B2202115E00B
:102F400000400008240000206802002050010020FA
:102F500000000020C00100204352434E4F544F4B0D
:102F600000000000002002404000F81F11549A4D5C
:102F7000401C2F7CC4B264213846FDF7C1F9974A42
:102F800030301055641C0846E4B20A21FDF7B8F948
:102F9000924930300855641CE4B20A213846FDF7E6
:102FA000AFF98E48303101556F7C641CE4B2642166
:102FB0003846FDF7A5F9894A30301055641C08469B
:102FC000E4B20A21FDF79CF9844930300855641CAD
:102FD000E4B20A213846FDF793F9804830310155B3
:102FE000AF7C641CE4B264213846FDF789F97B4A62
:102FF00030301055641C0846E4B20A21FDF780F910
:10300000764930300855641CE4B20A213846FDF791
:1030100077F9724830310155ED7C641CE4B26421CB
:103020002846FDF76DF96D4A30301055641C08468E
:10303000E4B20A21FDF764F9684930300855641C90
:10304000E4B20A212846FDF75BF9644830310155A6
:10305000641CE2B210466149327080300870F1E6BB
:103060005E484178412908D05D494E230A7883544F
:10307000521CD2B20A708121D4E6594B44221978ED
:103080004254491CC9B24F224254491CC9B24E2273
:103090004254491CC9B245224254491CCAB21A7052
:1030A00011468031017064234C494E48FFF772F895
:1030B0004D49086880F308884868804749E5474DCE
:1030C000687841280AD046494E2208782A54401C84
:1030D000C2B20A708120287064230CE7A01CFDF79F
:1030E000FEF800BA000A617900023D4E08437060A4
:1030F000A1790190002002910090FDF795FD07A9AC
:103100006846FDF729FDFDF78FFD307845212954EC
:10311000401CC0B244222A54401CC0B24F222A5440
:10312000401CC0B24E222A54401CC0B22954401C3C
:10313000C2B2104632708030CDE72848407841282E
:1031400008D026494E23264802788B54521CD2B20E
:103150000270E7E52746A01CFDF7C1F800BA000A97
:10316000797900021E4D0843686038784006400EA9
:10317000401F6870FDF758FD00240DE03E19F01D5A
:10318000FDF7ADF80202B0790243AA606868011940
:103190000220FDF72BFD241D68788442EEDBFDF74D
:1031A00017FD0E49287850220A54401CC0B2442210
:1031B0000A54401CC0B24F220A54401CC0B24E22D6
:1031C0000A54401CC0B245220A54401CC2B22A70A4
:1031D00010468030A7E500004000F81F5001002095
:1031E00000000020680200200040000800000000ED
:1031F0000000000001020304060708090304060892
:103200000C10182030000000000102030400000030
:1032100030320008000000202400000004010008F3
:103220005432000824000020EC09000020010008AE
:10323000000000000000000000000000000000008E
:103240000000000001000000040000000000000079
:04325000000020005A
:04000005080000C12E
:00000001FF
